:100000000C942A000C943F000C943F000C943F0089
:100010000C943F000C943F000C943F000C943F0064
:100020000C943F000C943F000C943F000C943F0054
:100030000C943F000C943F000C943F000C943F0044
:100040000C943F000C943F000C943F000C943F0034
:100050000C943F0011241FBECFE5D8E0DEBFCDBF1A
:1000600010E0A0E6B0E0E8E8F1E002C005900D92F3
:10007000A838B107D9F70E946B000C94C2000C9409
:1000800000008BBB80E288BB2FEF80E792E021501D
:1000900080409040E1F700C0000018BA08958BBB83
:1000A00080E388BB2FEF80E792E0215080409040B2
:1000B000E1F700C0000080E188BB0895CF93DF9393
:1000C000EC0103C00E944F00219688818111FACF74
:1000D000DF91CF9108959FEF9ABB80EF87BB94BBD0
:1000E00088BB15BA88E30E9441008FE00E9441005E
:1000F00015BAB09922C02FEF80E792E021508040DE
:100100009040E1F700C00000B09916C085E185BBC2
:1001100081E00E94410080E80E94410080E690E07A
:100120000E945E0080EC0E9441008CE690E00E94FC
:100130005E00B09BFECF01C015BAB299D9CF2FEFA8
:1001400080E792E0215080409040E1F700C000003D
:10015000B29916C086E285BB81E00E94410080E82A
:100160000E94410082E790E00E945E0080EC0E94C5
:1001700041008EE790E00E945E00B29BFECFB8CFB8
:0801800015BAB6CFF894FFCFC9
:1001880054454D50203E203230B043004143204F6B
:100198004E0054454D50203C203230B04300484575
:0801A80041544552204F4E0066
:00000001FF
